:100000000AC022C021C020C03CC01EC01DC06FC09D
:100010001BC01AC019C011241FBECFEDCDBF10E008
:10002000A0E6B0E0ECEBF1E003C0C89531960D928C
:10003000A036B107D1F710E0A0E6B0E001C01D92F4
:10004000A93CB107E1F701C0DBCFCFEDD0E0DEBFC7
:10005000CDBFF8948FEF87BB8EE089B988E98AB964
:100060001FBC89E08EBD80E099E09BBD8ABD80E425
:1000700089BF80E38093C50080E680936200789416
:10008000FFCF1F920F920FB60F9211248F939F9361
:10009000EF93FF939091C60080916200891770F4EE
:1000A0008091C700833128F48F5F8093C70018BA0E
:1000B00015C01092C6001092C70010C090FD02C07B
:1000C00018BA09C0892F8695E82FFF27ED59FF4FF1
:1000D0008081805A88BB9F5F9093C600FF91EF910B
:1000E0009F918F910F900FBE0F901F9018951F92A8
:1000F0000F920FB60F9211242F933F934F938F932C
:100100009F93EF93FF938CB18093C400873A60F084
:100110008A3A21F481E08093C80044C0873A21F4F0
:1001200081E0809361003EC08091C800813059F425
:100130001092C8009091C4008091C500981790F566
:10014000909360002FC0809161009091C400813035
:1001500079F410926100892F86508B3518F59093B1
:10016000C500892F9927880F991F809362001AC0B4
:10017000903A18F08FE98093C40040916000242FDA
:100180003327F32FE22FED59FF4F8091C400808376
:100190008091C50099270197281739071CF44F5FF4
:1001A00040936000FF91EF919F918F914F913F910C
:0C01B0002F910F900FBE0F901F9018951C
:00000001FF
